:1000000000000320D1010000CD1F0000991F000057
:10001000991F0000991F0000991F0000991F000000
:10002000991F0000991F0000991F0000CD1F0000BC
:10003000CD1F0000991F0000CD1F0000891F000088
:10004000CD1F0000CD1F0000CD1F0000CD1F000000
:10005000CD1F0000CD1F0000CD1F0000CD1F0000F0
:10006000CD1F0000CD1F0000CD1F0000CD1F0000E0
:10007000CD1F0000CD1F0000CD1F0000CD1F0000D0
:10008000CD1F0000CD1F0000CD1F0000CD1F0000C0
:10009000CD1F0000CD1F0000CD1F0000CD1F0000B0
:1000A000CD1F0000CD1F0000CD1F0000CD1F0000A0
:1000B000CD1F0000CD1F0000CD1F0000A5190000BE
:1000C000CD1F0000B92B0000CD1F0000A1080000CB
:1000D000CD1F0000F5240000CD1F0000CD1F000043
:1000E000CD1F0000CD1F0000CD1F0000CD1F000060
:1000F000CD1F0000CD1F0000CD1F0000CD1F000050
:10010000393E0000513E0000693E0000813E000083
:10011000CD1F00000D0B0000CD1F0000CD1F000003
:10012000CD1F0000CD1F0000CD1F0000CD1F00001F
:10013000CD1F0000CD1F0000CD1F0000CD1F00000F
:10014000DD430000CD1F0000B91E0000CD1F0000E0
:10015000CD1F0000CD1F0000CD1F0000CD1F0000EF
:10016000CD1F0000CD1F0000CD1F0000CD1F0000DF
:10017000CD1F0000CD1F0000CD1F0000CD1F0000CF
:10018000CD1F0000CD1F0000CD1F0000CD1F0000BF
:10019000CD1F0000CD1F000019380000CD1F00004A
:1001A000CD1F0000CD1F0000CD1F0000CD1F00009F
:1001B000CD1F0000CD1F0000CD1F0000CD1F00008F
:1001C000CD1F0000CD1F0000CD1F0000CD1F00007F
:1001D000594B4CF2205210B51A804DF628121A8055
:1001E00000BF00BF01F0F6FE544B4FF030621A60C2
:1001F000534A9A60534ADA60534B4FF470021A60C4
:10020000524B534A1A60534B1A6812F4807204D14D
:1002100051490A604FF4A8521A60504B1A781107DE
:1002200003D51A7842F008021A704D4BAA221A70B0
:1002300000234C4A4C499818884204D24B495958DB
:1002400099500433F5E74A4A4A4B9A424FF000036B
:1002500002D242F8043BF7E74749484A59589950B7
:100260000433B3F5E87FF7D1454B802103F8011B38
:1002700044498B42F9D1444B1A60444B8A221A708C
:10028000A3F5805324225A70A0221A709A799207FB
:10029000FCD59A79D406FCD43D4B9A7902F00C0235
:1002A000082AF9D101221A7148225A719A799006C6
:1002B000FCD5374B9A795106FBD5364A3649116041
:1002C0000221516020221A70314B9B7903F00C03FC
:1002D0000C2BF9D1314B324A1A60324B4BF67F323C
:1002E0001A6000225A60072243F8042C2E4AC3F8F1
:1002F0000C2D62B602F086FD174B1B68DA0705D598
:100300002A4802F0DDFC2A4B2A4A1A602A4B1B7845
:100310005B0609D5264C274A2368934204D123481B
:1003200002F0CEFC0023236004F058F901F058FEDF
:1003300000F098F8FEE700BF0E2005403080044032
:10034000823F04000100002B88ED00E0002008E05F
:100350000300008510D0034014D0034002D00740B2
:1003600000E00740F009FF1FC413FF1FEC5400001A
:10037000C413FF1F1C19FF1F000000000002FF1F15
:1003800000E400E064E400E008ED00E00050064016
:1003900000400640448004400000131104800440E3
:1003A000C010050014E000E00000202000DD6850CF
:1003B0001CE00340A5C3945A00F00740FFFFFFFF75
:1003C000FFFFFFFFFFFFFFFFFFFFFFFFFFFFFFFF3D
:1003D000FFFFFFFFFFFFFFFFFFFFFFFFFFFFFFFF2D
:1003E000FFFFFFFFFFFFFFFFFFFFFFFFFFFFFFFF1D
:1003F000FFFFFFFFFFFFFFFFFFFFFFFFFFFFFFFF0D
:10040000FFFFFFFFFFFFFFFFFFFFFFFFDEF9FFFF23
:1004100010B5054C237833B9044B13B10448AFF33E
:1004200000800123237010BDC413FF1F00000000D3
:10043000EC54000008B5064B1BB106480649AFF363
:1004400000800648036813B1054B03B1984708BD07
:1004500000000000EC540000C813FF1FC413FF1F6E
:100460000000000008B50D20012102F059FC074BE7
:1004700020241C604FF4FA7002F0AEFC044B4FF4E1
:10048000FA701C6002F0A8FCF1E700BF84F00F4096
:1004900088F00F40164B1A6842F480521A60154AD1
:1004A00000231370144A1370144A1370144A137003
:1004B000144A1370144A40F2133111604FF4517111
:1004C0005160124AC0F344311170C0F3471100F07B
:1004D0001F0051709072937013742C23D3700C4BC7
:1004E00040221A70A3F21F3308221A60704700BF1F
:1004F000348004404E14FF1FE513FF1F5414FF1FE8
:100500004F14FF1FE413FF1F08C0044000C0064043
:1005100023E400E0194A937800F0030103F0EC03B0
:100520000B43410748BF43F01003937000F00F03E3
:10053000042B124903D18B7943F040038B7152791C
:100540000E4B02F0EF02C10648BF42F010025A7192
:100550009A7910F0200F02F0EF02194618BF42F00E
:1005600010028A71C205054B06D55A781978D2B2A5
:1005700041F0200119705A70704700BF00C006405A
:1005800008B5124B1B68DB0400D408BD104B1A7869
:1005900002F0FF0312B103F05BFFF7E70D4A0821F9
:1005A00011600D4A01F1804101F59821D37040F2AC
:1005B00003120A604A60094A1370094A1370094B12
:1005C0001B680BB101221A7008BD00BF34800440C3
:1005D000E413FF1F84E100E000C006404E14FF1F3B
:1005E000E513FF1FE013FF1F38B50446094B1B78C6
:1005F00003F0FF05002BF9D12046012102F090FB0A
:100600002046294602F06CFB034B53F83420034B81
:100610001A6038BDE413FF1FC44F00005014FF1FC1
:1006200010B509B140F080000E4A1378984217D0F7
:100630000D4C2468E40412D503F07F03082B02D18B
:100640000A4B00241C60002900F07F030CBF4421EA
:100650006021082B03D1054B41F4407119601070E3
:1006600010BD00BFF409FF1F348004400CC00440DB
:100670007047FFFF0D4A38B5146814F480524FF0EC
:10068000000410D03F280A4D0AD80A4A012152F826
:1006900030302B6002F044FB2B681C70012038BD09
:1006A0002C60204638BD104638BD00BF3480044061
:1006B000E013FF1FC44F00000B4B1B6813F4805363
:1006C00010D00E28094B09D1094A40F202311160BD
:1006D0005A7B42F001025A73012070475A7B02F0A4
:1006E000FE025A73002070473480044000C0064068
:1006F00004C00440F8B51D4B1B68DA04064633D528
:100700001B4B1B680BB101221A701A4B1C78013469
:10071000282C1F4628BF0024174D2B78A34218D140
:1007200001F068FC40280FDC144A13791B06F3D54E
:100730002B7813490133282B28BF0023C95CDBB277
:10074000C9B2D1712B70E7E7FF28E5DD03F080FE29
:10075000E2E70B4BF6B21E550A4B01221A70074B0B
:10076000E4B2AC223C70DA70F8BD00BF34800440C3
:100770005014FF1F5414FF1F4F14FF1F00C00640EA
:10078000E613FF1FE413FF1F38B504464518AC42BB
:1007900004D014F8010BFFF7ADFFF8E738BDFFFFF9
:1007A00008B5034B1B7813B103F052FEF9E708BDFF
:1007B000E413FF1F064A074B1B781078DBB2C0B268
:1007C00083422CBF273000F1FF30C01A704700BFB2
:1007D0004F14FF1F5414FF1F054B1878054B1B784F
:1007E000C0B2DBB2984238BF4030C01A704700BF79
:1007F0004E14FF1FE513FF1F10B5104B10491A7858
:100800000B78D2B2DBB29A4214D00133402B28BF0E
:1008100000230C48DCB2C05C0C700B490968C0B204
:1008200051B19A4238BF4032D31A1A2B04DC00234C
:100830000B7010BD4FF0FF3010BD00BF4E14FF1FF6
:10084000E513FF1F0E14FF1FE013FF1F084B1A785C
:10085000084B1B78DBB29A4207D00133402B28BFEC
:100860000023054AD05CC0B270474FF0FF3070479C
:100870004E14FF1FE513FF1F0E14FF1F054B1A78C0
:10088000054BD2B21A70054B1B680BB100221A70CF
:10089000704700BFE513FF1F4E14FF1FE013FF1F3B
:1008A00010B5294B1A79920620D5284AD8791378A1
:1008B00027490133402B097828BF00238B42C0B25F
:1008C00003D02449C854D9B21170234A116869B1C0
:1008D000224A1278D2B2934236BFC2F14002C2EB32
:1008E00003039B18272BC4BF01230B70164AD17832
:1008F000C9B20C0616D51379180613D5184B17482C
:100900001C780378DBB29C4202D16C23D37009E0DF
:100910000133282B28BF0023124CE45CDBB2E4B285
:10092000D47103704B060ED5074B1A7912F0400FA5
:10093000194608D00C4B00221A700C4B1B6803B1EF
:100940001A702C23CB7010BD00C006404E14FF1F40
:10095000E513FF1F0E14FF1FE013FF1F4F14FF1FAF
:100960005414FF1FE613FF1FE413FF1F5014FF1F53
:10097000F0B50C4B0C4C1A7842F0020504EBC5069E
:1009800082F00102706009481A700678002E0CBFD0
:100990008827C82786F0010647EA0141067044F817
:1009A0003510F0BDCC14FF1F0000FF1F4C15FF1FBA
:1009B000431E042B10B510D872B6094A52F8230012
:1009C00048B1416842F82310064A018832F81340C2
:1009D000611A22F8131062B610BD002010BD00BFCE
:1009E000B814FF1F0C19FF1F013804280AD872B66B
:1009F000054B53F82030002013B101305B68FBE752
:100A000062B67047002070471015FF1F30B572B6F0
:100A1000194A0123042B20D0541C127812071DD52B
:100A20009900164A52F831502DB902EB43130830A1
:100A30005860134B09E041F0010152F831506DB993
:100A400002EBC103083058600E4B42F831300E4BB8
:100A50001A78013A1A7062B630BD14460133062B7B
:100A600001D02246D6E762B6074B00221A70BDE8D5
:100A7000304002F041BC00BFC45100000000FF1F25
:100A800088004000C80040004215FF1F431E042B91
:100A900030B532D8194A400140F01000104472B607
:100AA000174CE25C032A09D8DFE802F016021805A9
:100AB0000830022213E00830042210E01148124AE4
:100AC00050F8234014B940F8231002E052F82300F4
:100AD000416042F823100FE0032200E00522E254B7
:100AE00010F0080F01F108030A8843600CBF882347
:100AF000C82343EA0243036062B630BD0000FF1F13
:100B00007014FF1F1015FF1F2415FF1F2DE9F74F4D
:100B1000B14F3C78E4B214F0040F3D4619D0AF4B0E
:100B20001B78A3B1AE4A117801F0FF0321B1013B5C
:100B3000DBB2137003B900BEAA4A117801F0FF03BB
:100B400029B1013BDBB213700BB902F09BFB04230C
:100B50003B7004F0080303F0FF02002B00F08683D3
:100B6000A14BA24C1B78DBB21D094FEA930840F061
:100B7000CF8204EBC8035E6854F83830C3F38303B4
:100B8000013B0C2B00F29782DFE813F04802480289
:100B900095029502950295029502950271029502C1
:100BA000950295020D003368914D924872682B6052
:100BB00001216A60904E914A01709BB240F28160BF
:100BC00044F8382083424FF0000232602261A26173
:100BD000019235D8B3F5D06F80F0848140F22120A6
:100BE000834200F0188215D8822B00F04B8107D881
:100BF000802B40F0E081824C022322706270D8E1A9
:100C0000B3F5817F00F04E8140F22112934200F053
:100C10000282D0E140F22132934200F0FC8105D8FB
:100C200040F20232934200F04D81C4E140F2214291
:100C3000934200F0F081B3F5A06F00F0C081BAE1FB
:100C400040F60130834200F0668120D840F6211240
:100C5000934200F0E0810FD8B3F5086F00F00C81EB
:100C6000B3F5106F40F0A7815C4BDFF88081AA7864
:100C70001A7008F1A00926E040F62122934200F004
:100C80009E8140F68122934200F0748193E148F204
:100C9000A1218B4200F07C810AD848F2A1118B423D
:100CA00000F0768148F2A2118B4200F0788182E157
:100CB00048F2A132934200F06B8148F2A142934284
:100CC00000F0668177E1D8F820301A0604D5D8F80C
:100CD0002400083802F010FB08F10808C845F2D1DA
:100CE0004FF00008C146DFF844A158F80A0028B1C7
:100CF000D0F804B002F000FB5846F8E74AF80800C4
:100D0000404BDFF82CA148F8030058F80A0028B13E
:100D1000D0F804B002F0F0FA5846F8E73A4B4AF837
:100D2000080048F80300394B23F81900384B19F82C
:100D30000320023A032A08D8DFE802F00204020482
:100D4000002200E0012203F8092009F10109B9F1AC
:100D5000050F08F10408C6D12E4B00221A704FF07F
:100D600001089A462C4B2D4A434442449B0012F8FA
:100D7000012C1A70B8F1040F4FEA88090AD1284AE9
:100D8000284BC4F88420C4F88030C4F88C20C4F800
:100D9000883056E0130754D502F090FA38B104EBCE
:100DA000481308305860204B44F8393006E09AF870
:100DB000003044F8390001338AF8003002F07EFA3E
:100DC00049F00103B0B304EBC302083050600B4A92
:100DD00044F8332035E000BF802007404B15FF1F4B
:100DE000CD14FF1F6017FF1F902007400000FF1F5A
:100DF0003815FF1F4C15FF1F5814FF1FC800400077
:100E00004315FF1F5C14FF1F2415FF1F0C19FF1F44
:100E10007014FF1F4215FF1F30C80110C45100009D
:100E20000404FF1F8000B40088004000B814FF1FB6
:100E30001015FF1F44F833009AF8003001338AF888
:100E4000003049F0020349F003090021B8F1050F11
:100E500044F83310994A44F8391006D102EBC30123
:100E600097484860974942F8331008F10108B8F1F3
:100E7000060F7FF477AFA2E0934B944C1B7823705E
:100E800001919FE0A888052800F295808F4B800093
:100E90001A705A708E4A125C940748BF1970022368
:100EA00001938EE0AB8803F07F03052B00F3838072
:100EB0006C88002C7FD19A00854B13441A7822F05D
:100EC00002020DE0AB8803F07F03052B73DC6C8816
:100ED000002C70D19A007E4B13441A7842F0020223
:100EE0001A706FE06A88A9887A4B53F8084CA3F10E
:100EF0000C00002C5FD033F80CCC944509D133F8AA
:100F00000ACC8C4505D1120A032A0CBF2378038929
:100F10004FE00C33E9E7AB88022B24D1AB786E4A63
:100F20001370002B4BD0DFF8E4916C4B99F802A0C2
:100F3000A3F10804BAF1000F18BF1C46216811F094
:100F400080083CD1DFF8C0B141465846B02203F0DA
:100F500011FE8AF0010A624BC4F804B0236089F8DC
:100F600002A044462EE0032B25D15E4B6988197000
:100F7000144627E0AB880191022B02D1534C564B0B
:100F800003E0032B17D1514C564B1B78237019E00B
:100F900055484E4901AA03F06BF990B90BE0EB8874
:100FA000022B08D9494C44232370AC236370A270F0
:100FB0000323019306E0464B0F221A702BE0002416
:100FC00000E0424CEB88019A9A4288BF0193019D50
:100FD000402D34BFA8464FF0400820464146FFF759
:100FE000C7FC019DC8EB050501951DB9B8F1400F7F
:100FF00003D010E0402D28BF402544442046294618
:10100000FFF7B6FC019B5B1B01D1402D03D1374A92
:101010002C44346013800122354B4BE0324B354970
:101020001A688A4216D15B68B3F5802F12D13378E3
:10103000A92B0FD17378452B0CD1B378C22B09D1D2
:10104000F3786B2B06D12C4B0020052201461A7039
:10105000FFF78EFC2448314603F03CF918B100201C
:101060000146FFF785FC254B44F8383023E0244E39
:101070003568B5B1DFF87480B8F80090B9F1400F69
:1010800034BF4C46402428462146FFF771FCC4EB90
:1010900009039BB2A8F800300BB9402C00D12B19E2
:1010A0003360114B1A88B2F5A06F04D100225A7038
:1010B0009A78144B1A7001220D4BCAE00000FF1FF2
:1010C0000004FF1F800003004B15FF1F4315FF1F87
:1010D000C0200740D85100007618FF1F7800FF1F7E
:1010E0008000B0007718FF1F3815FF1F4015FF1F45
:1010F0009420074021090003CD14FF1FC8004000C1
:101100005814FF1F98200740B804FF1F7014FF1FDA
:10111000013D04EBC806EDB2022D726803F008032E
:1011200013D16BB303F038F8002800F09C8086F0F0
:1011300008066A4B73600004694B40F08000306021
:101140009A7882F001029A708DE0032D09D1BBB923
:1011500054F83800000C02F091FF624B7360624B50
:101160007FE0042D0CD15BB186F008065F4B736005
:101170005F4B33605A4B1A7982F001021A7172E0A8
:10118000A2F1080003F0FF01002B36D002F0B4F802
:101190005848534B50F82520EAB1516840F82510C3
:1011A00002F108017160595D03290BD8DFE801F0F5
:1011B00002040608032104E0022102E0052100E008
:1011C0000421595516F0080F12880CBF8823C82334
:1011D00043EA024345E05A5D032A07D8DFE802F0FC
:1011E00043430204002206E0012204E016F0080F47
:1011F0000CBF022203225A5535E054F838304FEA2A
:10120000134C22F808CCBCF1000F24D022F8061CA5
:1012100042F8041C384A394952F8253013B942F8CB
:10122000250002E051F825205060354A41F825009C
:1012300032F815100CEB010322F8153002F03EF8DD
:1012400010B10830706006E02E4B44F838001A7870
:1012500001321A7007E02C4B2C4A16F0080F08BF19
:10126000134644F8383008233B7051E4E0071ED59C
:1012700027492648274C02230B70274B1A70274B0F
:10128000186098602648D8601A619A615C60254BA6
:101290000D2018702448FF2303702B700274234A1A
:1012A0001370234B9F221A7001230B7012E021064A
:1012B00004D51C4B0D221A7080232B70A20705D574
:1012C000194B1A78D2B21A7002232B70E30644BF6E
:1012D00010232B7003B0BDE8F08F00BFB804FF1FD0
:1012E0007014FF1F0404FF1F8000B4000004FF1FE0
:1012F000800003001015FF1FB814FF1F5C14FF1FB0
:101300000C19FF1F4215FF1FC80040008800400055
:10131000942007407814FF1FCC14FF1F0000FF1F0C
:10132000D014FF1FC0200740882007408C200740B2
:101330008420074008B501F041FE00221B4B00212C
:10134000D15098180832A82A4160F7D1184A10687D
:1013500040F480201060174A106840F04070106020
:1013600002F5C9229C32C3F307201070C3F3074073
:101370001B0E10751376FF2302F81C3C02F8143C78
:1013800002F88C3C012302F8083C82F8641002F851
:10139000183C094B70226FF44C711A700B444FF4D7
:1013A00000121A60054B10221A7008BD0000FF1FC2
:1013B0003480044000D8004035E400E008210740B4
:1013C000294B1A6842F480621A60284A002313707D
:1013D000274A1370274A1370274A1370274A13703D
:1013E000274B1B78152B06D01B2B08D05BB940F27E
:1013F0001332244B06E040F21332234B02E0234B1E
:1014000040F213321A60224B1B78052B07D01A2B9F
:1014100009D0012B0BD14FF451721E4B06E04FF453
:1014200051721D4B02E01D4B4FF451721A601C4B60
:10143000C0F344321A70C0F347125A7000F01F0014
:101440000422022198729A70D9745A7588221A74EB
:101450003C22DA70134B40221A70A3F21F334FF074
:1014600000421A60704700BF34800440D715FF1F48
:101470005515FF1FE015FF1FD815FF1F5415FF1F3F
:101480009615FF1F40A0044018C004403C90044043
:10149000F509FF1F44A004401CC0044038900440DC
:1014A00000A006401FE400E0194A937800F0030111
:1014B00003F0EC030B43410748BF43F01003937064
:1014C00000F00F03042B124903D18B7943F0400342
:1014D0008B7152790E4B02F0EF02C10648BF42F009
:1014E00010025A719A7910F0200F02F0EF0219469B
:1014F00018BF42F010028A71C205054B06D55A7812
:101500001978D2B241F0200119705A70704700BFAB
:1015100000A0064008B5114B1B685B0500D408BD50
:101520000F4B1A7802F0FF0312B102F091FFF7E7B8
:101530000C4A4FF0004111600B4A0C49D37040F245
:1015400003120A604A600A4A13700A4A13700A4B6F
:101550001B680BB101221A7008BD00BF3480044023
:101560005415FF1F80E100E000A0064040A00440A9
:10157000D715FF1F5515FF1F5015FF1F38B504461F
:10158000094B1B7803F0FF05002BF9D12046012100
:1015900001F0C6FB2046294601F0A2FB034B53F89D
:1015A0003420034B1A6038BD5415FF1FC44F000090
:1015B000DC15FF1F10B509B140F08000194A1378FF
:1015C000984214462DD0184A1268520528D503F0C7
:1015D0007F03052B06D01A2B07D0012B08D1002240
:1015E000124B04E00022124B01E0124B00221A6061
:1015F000002900F07F020CBF44236023052A07D096
:101600001A2A09D0012A0BD143F44073074A06E095
:1016100043F44073064A02E0064A43F44073136001
:10162000207010BDF509FF1F3480044044A0044021
:101630001CC0044038900440144A1378984223D0C8
:101640001349096849051ED5152B05D01B2B06D05B
:1016500043B910490B6005E000210F4B01E00F4B2F
:1016600000211960152806D01B2808D058B940F26F
:101670001331084B06E040F21331074B02E0074BF1
:1016800040F2133119601070704700BF9615FF1FAC
:101690003480044040A0044018C004403C90044002
:1016A0000D4A38B5146814F480624FF0000410D06D
:1016B0003F280A4D0AD80A4A012152F830302B60DF
:1016C00001F02EFB2B681C70012038BD2C602046D9
:1016D00038BD104638BD00BF348004405015FF1F90
:1016E000C44F00000E4B1B6813F4806316D0122801
:1016F0000C4B03D140F202310B4A04E0142809D10B
:101700000A4A40F2023111605A7B42F001025A73D8
:10171000012070475A7B02F0FE025A730020704786
:101720003480044000A006400CA0044014C00440D3
:10173000F8B51D4B1B685A05064633D51B4B1B6875
:101740000BB101221A701A4B1C780134402C1F4631
:1017500028BF0024174D2B78A34218D100F04AFC73
:1017600040280FDC144A13791B06F3D52B78134954
:101770000133402B28BF0023C95CDBB2C9B2D17151
:101780002B70E7E7FF28E5DD02F062FEE2E70B4B96
:10179000F6B21E550A4B01221A70074BE4B2BC2266
:1017A0003C70DA70F8BD00BF34800440DC15FF1FC8
:1017B000E015FF1FD815FF1F00A006405615FF1F9C
:1017C0005415FF1F274B1B685A052DE9F0470746A4
:1017D0008A4644D5244B1B680BB101221A703D4642
:1017E00007EB0A039D4237D2DFF890801F4E98F82E
:1017F000004096F800900134402C28BF00245FFA86
:1018000089F9A1451DD11A4BBC22DA7000F0F2FB18
:1018100040280FDC164A13791B060FD5337815497B
:101820000133402B28BF0023C95CDBB2C9B2D171A0
:10183000337003E0FF2801DD02F00AFE33784B45E8
:10184000E4D00C4B15F8012B1A550B4B0122E4B2D6
:101850001A7088F80040C3E7054BBC22DA70BDE877
:10186000F08700BF34800440DC15FF1FD815FF1F30
:1018700000A006405615FF1F5415FF1FE015FF1F5F
:1018800008B5034B1B7813B102F0E2FDF9E708BD80
:101890005415FF1F064A074B1B781078DBB2C0B205
:1018A00083422CBF3F3000F1FF30C01A704700BFA9
:1018B000D815FF1FE015FF1F054B1878054B1B7847
:1018C000C0B2DBB2984238BF4030C01A704700BF88
:1018D000D715FF1F5515FF1F10B5104B10491A786B
:1018E0000B78D2B2DBB29A4214D00133402B28BF1E
:1018F00000230C48DCB2C05C0C700B490968C0B214
:1019000051B19A4238BF4032D31A1A2B04DC00235B
:101910000B7010BD4FF0FF3010BD00BFD715FF1F7B
:101920005515FF1F9715FF1F5015FF1F084B1A78FD
:10193000084B1B78DBB29A4207D00133402B28BFFB
:101940000023054AD05CC0B270474FF0FF307047AB
:10195000D715FF1F5515FF1F9715FF1F0C4B1B6851
:101960005B0514D50B4BDA7802F0CB02DA7040221B
:101970005A74DA7842F03402DA70074B1A78074B5F
:10198000D2B21A70064B1B680BB100221A70704756
:101990003480044000A006405515FF1FD715FF1FD7
:1019A0005015FF1F30B5374B1A7912F0300F31D078
:1019B00072B69A7D02F0FF0022B9DA7940225A7499
:1019C00062B627E062B6304A304913780978DBB254
:1019D000C9B214462B4AD5795A1C402A28BF002286
:1019E0008A42EDB202D02A4B9D541346421E12F099
:1019F000FF00EFD1DAB22270264A126852B18B4250
:101A000036BFC1F14001C1EB03035B18272BC4BFF4
:101A1000012313701B4BD978C9B20C0620D51B7952
:101A200018061DD51C4B1D4A1D781378EDB2DBB28C
:101A30001046AB420CD0134A0133402B1479184C9A
:101A400028BF0023E45CE4B2D471127D072AF0D9E8
:101A5000DBB203700B4B1A79120644BF7C22DA709A
:101A60004B060ED5074B1A7912F0400F194608D0D5
:101A70000C4B00221A700C4B1B6803B11A703C23EC
:101A8000CB7030BD00A00640D715FF1F5515FF1FB6
:101A90009715FF1F5015FF1FE015FF1FD815FF1FDB
:101AA0005615FF1F5415FF1FDC15FF1F164B1A6834
:101AB00042F480621A60154A00231370144A1370AE
:101AC000144A1370144A1370144A1370144A40F2E3
:101AD000133111604FF4517142F8041C114AC0F3E4
:101AE00044311170C0F3471100F01F005170907223
:101AF000937013742C23D3700B4B40221A70A3F2F3
:101B00003A3304221A607047288004405216FF1F9F
:101B1000E915FF1F5816FF1F5316FF1FE815FF1F7B
:101B200064D0044000A00E4042E400E0194A9378DB
:101B300000F0030103F0EC030B43410748BF43F0FF
:101B40001003937000F00F03042B124903D18B791B
:101B500043F040038B7152790E4B02F0EF02C10645
:101B600048BF42F010025A719A7910F0200F02F02B
:101B7000EF02194618BF42F010028A71C205054BE8
:101B800006D55A781978D2B241F0200119705A70EE
:101B9000704700BF00A00E4008B5114B1B685B05E5
:101BA00000D408BD0F4B1A7802F0FF0312B102F007
:101BB0004FFCF7E70C4A042111600C4A0C49D37022
:101BC00040F203120A6041F8042C0A4A13700A4AD0
:101BD00013700A4B1B680BB101221A7008BD00BFBD
:101BE00028800440E815FF1F88E100E000A00E40B7
:101BF00064D004405216FF1FE915FF1FE415FF1FB4
:101C000038B50446094B1B7803F0FF05002BF9D1CA
:101C10002046012101F084F82046294601F060F8B1
:101C2000034B53F83420034B1A6038BDE815FF1FEF
:101C3000C44F00005416FF1F10B509B140F08000DA
:101C40000E4A1378984217D00D4C2468E40412D53C
:101C500003F07F03212B02D10A4B00241C600029D2
:101C600000F07F030CBF44216021212B03D1054BE1
:101C700041F440711960107010BD00BFF609FF1FDC
:101C80003480044060D004407047FFFF0D4A38B5EF
:101C9000146814F480624FF0000410D03F280A4DFD
:101CA0000AD80A4A012152F830302B6001F038F886
:101CB0002B681C70012038BD2C60204638BD1046B2
:101CC00038BD00BF28800440E415FF1FC44F00004A
:101CD0000B4B1B6813F4806310D01828094B09D1F3
:101CE000094A40F2023111605A7B42F001025A73F4
:101CF000012070475A7B02F0FE025A7300207047A1
:101D00002880044000A00E4068D00440F8B51D4B68
:101D10001B685A05064633D51B4B1B680BB10122C5
:101D20001A701A4B1C780134282C1F4628BF002437
:101D3000174D2B78A34218D100F05CF940280FDC36
:101D4000144A13791B06F3D52B7813490133282B3A
:101D500028BF0023C95CDBB2C9B2D1712B70E7E7A1
:101D6000FF28E5DD02F074FBE2E70B4BF6B21E55EF
:101D70000A4B01221A70074BE4B2AC223C70DA70B5
:101D8000F8BD00BF288004405416FF1F5816FF1FDF
:101D90005316FF1F00A00E40EA15FF1FE815FF1F96
:101DA00038B504464518AC4204D014F8010BFFF7CF
:101DB000ADFFF8E738BDFFFF08B5034B1B7813B143
:101DC00002F046FBF9E708BDE815FF1F064A074B7E
:101DD0001B781078DBB2C0B283422CBF273000F1F1
:101DE000FF30C01A704700BF5316FF1F5816FF1F61
:101DF000054B1878054B1B78C0B2DBB2984238BF50
:101E00004030C01A704700BF5216FF1FE915FF1F70
:101E100010B5104B10491A780B78D2B2DBB29A4247
:101E200014D00133402B28BF00230C48DCB2C05C27
:101E30000C700B490968C0B251B19A4238BF4032A8
:101E4000D31A1A2B04DC00230B7010BD4FF0FF30A7
:101E500010BD00BF5216FF1FE915FF1F1216FF1F0E
:101E6000E415FF1F084B1A78084B1B78DBB29A4227
:101E700007D00133402B28BF0023054AD05CC0B2F5
:101E800070474FF0FF3070475216FF1FE915FF1FD4
:101E90001216FF1F054B1A78054BD2B21A70054B6C
:101EA0001B680BB100221A70704700BFE915FF1FB5
:101EB0005216FF1FE415FF1F10B5294B1A79920621
:101EC00020D5284AD879137827490133402B09783F
:101ED00028BF00238B42C0B203D02449C854D9B2D2
:101EE0001170234A116869B1224A1278D2B2934222
:101EF00036BFC2F14002C2EB03039B18272BC4BFBD
:101F000001230B70164AD178C9B20C0616D5137985
:101F1000180613D5184B17481C780378DBB29C427F
:101F200002D16C23D37009E00133282B28BF002392
:101F3000124CE45CDBB2E4B2D47103704B060ED5F4
:101F4000074B1A7912F0400F194608D00C4B0022AB
:101F50001A700C4B1B6803B11A702C23CB7010BD88
:101F600000A00E405216FF1FE915FF1F1216FF1F9B
:101F7000E415FF1F5316FF1F5816FF1FEA15FF1F1A
:101F8000E815FF1F5416FF1F024B1A6801321A6032
:101F9000704700BF4C17FF1F08B50B4C2368580350
:101FA00001D5FEF7B3FD2368590501D5FFF7FAFC0B
:101FB00023681A0501D500F0FFFD2368DB04ECD58A
:101FC000FEF76EFCE9E700BF3480044008B5FFF778
:101FD000E3FFFFFF014B10221A80704700200540ED
:101FE0007047FFFF024A1368184410601846704794
:101FF000F809FF1FEFF313839BB9EFF3108098B933
:10200000EFF3058323B10F2B04D9084A985C01E054
:102010004FF48070EFF311833BB1834238BF184611
:1020200070474FF0FF30704718467047F0E300E00C
:10203000214B1A6842F400521A60204A00231370A0
:102040001F4A13701F4A13701F4A13701F4A1370E0
:102050001F4B1B781F2B05D03F2B07D140F21332AB
:102060001C4B02E01C4B40F213321A601B4B1B78D6
:10207000202B05D03E2B07D14FF45172184B02E0B4
:10208000184B4FF451721A60174BC0F344321A7058
:10209000C0F347125A7000F01F00002298729A7025
:1020A0001A742C22DA70114B40226FF448711A70A6
:1020B0000B4420221A60704734800440CA16FF1F68
:1020C0006116FF1FD016FF1FCB16FF1F6016FF1FE4
:1020D000FC09FF1F14D0044028A00440FD09FF1F85
:1020E00010D004402CA0044000D0064025E400E0BD
:1020F000194A937800F0030103F0EC030B43410706
:1021000048BF43F01003937000F00F03042B1249F3
:1021100003D18B7943F040038B7152790E4B02F05F
:10212000EF02C10648BF42F010025A719A7910F0CE
:10213000200F02F0EF02194618BF42F010028A7118
:10214000C205054B06D55A781978D2B241F0200164
:1021500019705A70704700BF00D006401E4B1B68B4
:102160009B0410B500D410BD1C4B1B7803F0FF027C
:1021700013B102F06DF9F7E7194B1A4C1A482021F8
:1021800019601A4B1A49DA7040F203130B6023608E
:1021900000781F2804D03F2803D1164B1A6000E0B6
:1021A0000B60154B1B7803F07F03202B05D03E2BD3
:1021B00006D1124B00221A6002E040F203132360A2
:1021C0000F4A002313700F4A13700F4B1B680BB19B
:1021D00001221A7010BD00BF348004406016FF1F3A
:1021E00084E100E02CA00440FC09FF1F00D0064061
:1021F00028A0044014D00440FD09FF1F10D0044063
:10220000CA16FF1F6116FF1F5C16FF1F38B5044674
:10221000094B1B7803F0FF05002BF9D12046012163
:1022200000F07EFD2046294600F05AFD034B53F88E
:102230003420034B1A6038BD6016FF1FC44F0000E6
:10224000CC16FF1F10B509B140F08000144A137876
:102250009842144622D0134A126892041DD503F006
:102260007F03202B04D03E2B05D100220E4B01E032
:102270000E4B00221A60002900F07F020CBF44239D
:102280006023202A05D03E2A07D143F44073064A32
:1022900002E0064A43F440731360207010BD00BF93
:1022A000FD09FF1F3480044010D004402CA00440DE
:1022B0000F4A137898421AD00E490968890415D537
:1022C0001F2B04D03F2B05D100210B4B01E00B4B02
:1022D000002119601F2805D03F2807D140F2133193
:1022E000054B02E0054B40F2133119601070704746
:1022F000FC09FF1F3480044014D0044028A004408F
:102300000D4A38B5146814F400524FF0000410D090
:102310003F280A4D0AD80A4A012152F830302B6072
:1023200000F0FEFC2B681C70012038BD2C6020469C
:1023300038BD104638BD00BF348004405C16FF1F16
:10234000C44F000000207047F8B51D4B1B689A046D
:10235000064633D51B4B1B680BB101221A701A4B72
:102360001C780134282C1F4628BF0024174D2B78D9
:10237000A34218D1FFF73EFE40280FDC144A137920
:102380001B06F3D52B7813490133282B28BF0023D4
:10239000C95CDBB2C9B2D1712B70E7E7FF28E5DD7C
:1023A00002F056F8E2E70B4BF6B21E550A4B01223B
:1023B0001A70074BE4B2AC223C70DA70F8BD00BF73
:1023C00034800440CC16FF1FD016FF1FCB16FF1F12
:1023D00000D006406216FF1F6016FF1F38B5044686
:1023E0004518AC4204D014F8010BFFF7ADFFF8E735
:1023F00038BDFFFF08B5034B1B7813B102F028F876
:10240000F9E708BD6016FF1F064A074B1B781078D6
:10241000DBB2C0B283422CBF273000F1FF30C01ABC
:10242000704700BFCB16FF1FD016FF1F054B187853
:10243000054B1B78C0B2DBB2984238BF4030C01A9F
:10244000704700BFCA16FF1F6116FF1F10B5104B63
:1024500010491A780B78D2B2DBB29A4214D0013309
:10246000402B28BF00230C48DCB2C05C0C700B4929
:102470000968C0B251B19A4238BF4032D31A1A2B00
:1024800004DC00230B7010BD4FF0FF3010BD00BF07
:10249000CA16FF1F6116FF1F8A16FF1F5C16FF1F5B
:1024A000084B1A78084B1B78DBB29A4207D00133ED
:1024B000402B28BF0023054AD05CC0B270474FF0C4
:1024C000FF307047CA16FF1F6116FF1F8A16FF1FD5
:1024D000054B1A78054BD2B21A70054B1B680BB12D
:1024E00000221A70704700BF6116FF1FCA16FF1F37
:1024F0005C16FF1F10B5294B1A79920620D5284A81
:10250000D879137827490133402B097828BF002355
:102510008B42C0B203D02449C854D9B21170234AA7
:10252000116869B1224A1278D2B2934236BFC2F121
:102530004002C2EB03039B18272BC4BF01230B707F
:10254000164AD178C9B20C0616D51379180613D5D8
:10255000184B17481C780378DBB29C4202D16C23DD
:10256000D37009E00133282B28BF0023124CE45C10
:10257000DBB2E4B2D47103704B060ED5074B1A7967
:1025800012F0400F194608D00C4B00221A700C4B69
:102590001B6803B11A702C23CB7010BD00D006400D
:1025A000CA16FF1F6116FF1F8A16FF1F5C16FF1F4A
:1025B000CB16FF1FD016FF1F6216FF1F6016FF1FEE
:1025C000CC16FF1F294B1A6842F400621A60284A91
:1025D00000231370274A1370274A1370274A137079
:1025E000274A1370274B1B781A2B07D03B2B09D097
:1025F000092B0BD140F21332234B06E040F2133289
:10260000224B02E0224B40F213321A60214B1B781E
:102610001F2B07D03A2B09D00A2B0BD14FF4517244
:102620001D4B06E04FF451721C4B02E01C4B4FF463
:1026300051721A601B4BC0F344321A70C0F3471238
:102640005A700421022200F01F0098729970DA7407
:102650005975882119743C21D970134B4021197088
:102660006FF447710B441A60704700BF3480044018
:102670004217FF1FD916FF1F4817FF1F4317FF1FE1
:10268000D816FF1FFE09FF1F0CB00440389004400D
:1026900004D00440FF09FF1F10B0044028A00440EC
:1026A00000D0044000B0064021E400E0194A9378CD
:1026B00000F0030103F0EC030B43410748BF43F074
:1026C0001003937000F00F03042B124903D18B7990
:1026D00043F040038B7152790E4B02F0EF02C106BA
:1026E00048BF42F010025A719A7910F0200F02F0A0
:1026F000EF02194618BF42F010028A71C205054B5D
:1027000006D55A781978D2B241F0200119705A7062
:10271000704700BF00B0064008B51C4B1B681B0586
:1027200000D408BD1A4B1A7802F0FF0312B101F071
:102730008FFEF7E7174A02211160174AD370174A34
:102740001278092A04D03B2A06D1154A136003E007
:10275000144B40F203121A60134B1B7803F07F03F3
:102760000A2B04D03A2B06D10022104B02E0104B6A
:1027700040F203121A600F4A002313700E4A1370BE
:102780000E4B1B680BB101221A7008BD3480044047
:10279000D816FF1F84E100E000B00640FE09FF1FCD
:1027A00004D004400CB00440FF09FF1F00D00440D7
:1027B00010B004404217FF1FD916FF1FD416FF1F89
:1027C00038B50446094B1B7803F0FF05002BF9D1FF
:1027D0002046012100F0A4FA2046294600F080FAA4
:1027E000034B53F83420034B1A6038BDD816FF1F33
:1027F000C44F00004417FF1F10B509B140F080001E
:10280000144A13789842144622D0134A12681205CB
:102810001DD503F07F030A2B04D03A2B05D10022EB
:102820000E4B01E00E4B00221A60002900F07F02DF
:102830000CBF442360230A2A05D03A2A07D143F467
:102840004073064A02E0064A43F440731360207066
:1028500010BD00BFFF09FF1F3480044000D00440BA
:1028600010B004400F4A137898421AD00E490968F4
:10287000090515D5092B04D03B2B05D100210B4BA5
:1028800001E00B4B00211960092805D03B2807D136
:1028900040F21331054B02E0054B40F21331196051
:1028A00010707047FE09FF1F3480044004D00440BC
:1028B0000CB004400D4A38B5146814F400624FF0AF
:1028C000000410D03F280A4D0AD80A4A012152F8C4
:1028D00030302B6000F024FA2B681C70012038BDCA
:1028E0002C60204638BD104638BD00BF34800440FF
:1028F000D416FF1FC44F00000E4B1B6813F4006377
:1029000016D017280C4B03D140F202310B4A04E0D9
:102910003C2809D10A4A40F2023111605A7B42F048
:1029200001025A73012070475A7B02F0FE025A736B
:10293000002070473480044000B0064008B00440D6
:1029400008D00440F8B51D4B1B681A05064633D560
:102950001B4B1B680BB101221A701A4B1C780134F7
:10296000282C1F4628BF0024174D2B78A34218D1CE
:10297000FFF740FB40280FDC144A13791B06F3D500
:102980002B7813490133282B28BF0023C95CDBB205
:10299000C9B2D1712B70E7E7FF28E5DD01F058FDE2
:1029A000E2E70B4BF6B21E550A4B01221A70074B99
:1029B000E4B2BC223C70DA70F8BD00BF3480044041
:1029C0004417FF1F4817FF1F4317FF1F00B00640A3
:1029D000DA16FF1FD816FF1F274B1B681A052DE9B3
:1029E000F04707468A4644D5244B1B680BB10122A9
:1029F0001A703D4607EB0A039D4237D2DFF89080FC
:102A00001F4E98F8004096F800900134282C28BFFB
:102A100000245FFA89F9A1451DD11A4BBC22DA7056
:102A2000FFF7E8FA40280FDC164A13791B060FD58A
:102A3000337815490133282B28BF0023C95CDBB24A
:102A4000C9B2D171337003E0FF2801DD01F000FD50
:102A500033784B45E4D00C4B15F8012B1A550B4B32
:102A60000122E4B21A7088F80040C3E7054BBC228B
:102A7000DA70BDE8F08700BF348004404417FF1FC0
:102A80004317FF1F00B00640DA16FF1FD816FF1FBE
:102A90004817FF1F08B5034B1B7813B101F0D8FC92
:102AA000F9E708BDD816FF1F064A074B1B781078B8
:102AB000DBB2C0B283422CBF273000F1FF30C01A16
:102AC000704700BF4317FF1F4817FF1F054B1878BB
:102AD000054B1B78C0B2DBB2984238BF4030C01AF9
:102AE000704700BF4217FF1FD916FF1F10B5104BCC
:102AF00010491A780B78D2B2DBB29A4214D0013363
:102B0000402B28BF00230C48DCB2C05C0C700B4982
:102B10000968C0B251B19A4238BF4032D31A1A2B59
:102B200004DC00230B7010BD4FF0FF3010BD00BF60
:102B30004217FF1FD916FF1F0217FF1FD416FF1FD2
:102B4000084B1A78084B1B78DBB29A4207D0013346
:102B5000402B28BF0023054AD05CC0B270474FF01D
:102B6000FF3070474217FF1FD916FF1F0217FF1FC4
:102B70000C4B1B681B0514D50B4BDA7802F0CB020B
:102B8000DA7040225A74DA7842F03402DA70074B75
:102B90001A78074BD2B21A70064B1B680BB1002291
:102BA0001A7070473480044000B00640D916FF1FE9
:102BB0004217FF1FD416FF1F30B5374B1A7912F09A
:102BC000300F31D072B69A7D02F0FF0022B9DA7967
:102BD00040225A7462B627E062B6304A3049137810
:102BE0000978DBB2C9B214462B4AD5795A1C402A5F
:102BF00028BF00228A42EDB202D02A4B9D541346D0
:102C0000421E12F0FF00EFD1DAB22270264A12689B
:102C100052B18B4236BFC1F14001C1EB03035B18D7
:102C2000272BC4BF012313701B4BD978C9B20C06E4
:102C300020D51B7918061DD51C4B1D4A1D7813780D
:102C4000EDB2DBB21046AB420CD0134A0133282B55
:102C50001479184C28BF0023E45CE4B2D471127DCF
:102C6000072AF0D9DBB203700B4B1A79120644BF66
:102C70007C22DA704B060ED5074B1A7912F0400F02
:102C8000194608D00C4B00221A700C4B1B6803B17C
:102C90001A703C23CB7030BD00B006404217FF1FB6
:102CA000D916FF1F0217FF1FD416FF1F4817FF1F5B
:102CB0004317FF1FDA16FF1FD816FF1F4417FF1F09
:102CC000044B054900221A600A60044A1060102271
:102CD0001A60704714D0034004D0034000D0034072
:102CE0003F2810B518D80D4A52F8303093F880427A
:102CF0003CB1012211B183F8802010BD83F800217E
:102D000010BD02EBC00043681A6811B142F0030223
:102D100001E022F002021A6010BD00BFC44F0000A3
:102D20003F2810B537D81C4A02EBC00301295B6865
:102D3000144601D004290FD154F83020012082F824
:102D400080024FF4A2721A601A6804290CBF42F084
:102D5000200222F020021DE052F83020002082F8EC
:102D6000800211B18A1E012A12D84FF48072022902
:102D70001A6003D11A6842F003020BE003290AD15A
:102D80001A6842F002021A601A6822F0010201E099
:102D900040F203121A6010BDC44F000072B60B4B14
:102DA0000B491A680B4B1B68096862B6490102D5CA
:102DB000322A88BF0133C2F53B4230217F32B2FB59
:102DC000F1F24FF47A7000FB0320704718E000E046
:102DD00004ED00E04C17FF1F38B50446FFF7DEFF97
:102DE000054624B938BD013C0AD005F57A75FFF7D0
:102DF000D5FF401BB0F57A7FF5D201F029FBF6E74D
:102E000038BDFFFF354B36494FF0006270B51A6090
:102E10004FF080521A604FF000521A604FF080421B
:102E20001A604FF000421A602E4B2F4D2F4C304E3F
:102E300000224BF6FF701A60586028230B608B60ED
:102E40000B618B610B628B620B638B63103101F53D
:102E500001212B6023600B608B600B618B610B6227
:102E60008B620921316006F580560436326070604D
:102E7000B360336146F8041C06F5FE2632607060CC
:102E8000B360336146F8041C06F58056326070600A
:102E900018482B60236001601749086840F40070EF
:102EA000086051F8280C40F0007041F8280C2839CF
:102EB00001F501210A60114A47F6FF711160536064
:102EC000D3600F4B08221A6000F01CF84FF4C87052
:102ED000FFF782FFBDE87040FEF72CBA04E100E086
:102EE0000C800340048003400C900B4014900B4076
:102EF0000080034000900B402C80044008900C4060
:102F000000900C4010B5204B2048214960221A70D7
:102F1000E1225A701F4B204A1C78204B082C01D10B
:102F2000012402E00A2C03D139240460132005E0B7
:102F30000C2C0CBF35243D24046012200860146062
:102F40001860174B17491B78174A03B101230B6010
:102F50001360164B164A1978164B012901D88021A7
:102F60000BE0042901D8842107E0082901D8852134
:102F700003E0102994BF86218721116019600E4B50
:102F800001221A7010BD00BF0040074008B0034086
:102F90000CB00340000AFF1F08B00B400CB00B4000
:102FA0005117FF1F20B0034020B00B40010AFF1F44
:102FB00024B0034024B00B405017FF1F1FB572B65A
:102FC000134B144970221A70134A116080221A7030
:102FD0001A781206FCD5114B186862B6104B98424D
:102FE00098BF0A2301AC98BF584321460A2200F03B
:102FF0001BF80023E15C0B4A29B102EB43000133CB
:103000000A2B4180F6D101335B00137004B010BD70
:103010000000024000000741040002400C00024092
:103020007F969800540BFF1F10B50023B0FBF2F4FD
:1030300002FB1400092894BF30303730C0B2C854A6
:1030400020460CB10133F1E7CA18547022469A4267
:1030500006DA885CCC5C8C54C8540132013BF6E73C
:10306000084610BD38B5124B1B78EBB1114C2368E4
:103070001BB90220FDF79CFC206020680D4D98B123
:103080004388C218147A5CB102880133934204D396
:1030900000F032F900232B6000E04380204638BD69
:1030A00000F02AF92C60DEE74FF0FF3038BD00BF9A
:1030B0004B15FF1F5C17FF1F10B50D4B1B788BB115
:1030C0000C4C23681BB90220FDF772FC20602068BD
:1030D00040B1438803441C7A3CB900F00DF9054B1C
:1030E0001C60EAE74FF0FF3010BD204610BD00BF66
:1030F0004B15FF1F5C17FF1F38B5104D2B6823B110
:1031000028680024028843880FE00D4B1B781BB110
:103110000220FDF74DFC28602C68002CF0D10BE05C
:10312000C1182144097A19B10134E1189142F7DB41
:1031300014B900F0E1F82C60204638BD5C17FF1F81
:103140004B15FF1F2DE9F843324D012307460C466E
:103150002B70002C5AD0304E3368B1465BBB43F223
:1031600029282E4B1B7803F0FF020BB92A7018E0B8
:103170000120FDF739FC052804D9B8F10108284AD7
:1031800009D10AE001232B7000F098F8C9F800007B
:103190000028F2D00FE013783BB101231370002315
:1031A0002B704FF0FF30BDE8F8832B7001F050F921
:1031B00001232B70D5E73168194A48880023137022
:1031C000C0F14002944238BF224600F1080C10447E
:1031D0008C444880A41A934204D0F85C0CF8030095
:1031E0000133F8E71F444B883F2B0E4B02D80522D2
:1031F0001A70AEE740220A804FF00008012083F8E1
:103200000080FDF743FCC6F80080A2E72C70204642
:10321000BDE8F8835217FF1F5417FF1F4B15FF1F00
:103220005817FF1F6017FF1F07B502AB012103F8F6
:10323000010D1846FFF786FF03B05DF804FBFFFFA2
:1032400010B50D4B1B78B3B10C4B19681C4691B1EE
:103250004B8883B10A4A002010703F2B04DCCA1847
:10326000002010720133F8E740230B800120FDF7A6
:103270000DFC0023236010BD4B15FF1F5417FF1FCB
:103280006017FF1F10B50B4B1B788BB90A4A1168EA
:103290004B8814463F2B04DCCA18002010720133FF
:1032A000F8E740230B800120FDF7F0FB00232360AB
:1032B00010BD00BF5217FF1F5417FF1F72B60C4AF4
:1032C0001168B1FA81F30F2B02D962B60020704762
:1032D0004FF00040D84021EA0001116062B6054974
:1032E00048225343C8180022CA504260704700BFAA
:1032F0006C0BFF1F6C05FF1F0C4B4822C31AB3FB5E
:10330000F2F30F2B11D80A4A127822B1094A127827
:103310000AB1FDF77BBB72B6074A4FF0004121FAB4
:1033200003F311681943116062B670476C05FF1F03
:103330004215FF1F4B15FF1F6C0BFF1F444B1A68F4
:1033400042F010022DE9F0411A60424A136803F47A
:103350004033B3F5403F904606D03F4A3F4EB3F569
:10336000803F08BF164600E03D4E4FEA800CB6FB9A
:10337000FCF292B2002A68D09100B6FBF1F1091A72
:1033800008D0541CA300B6FBF3F3C31A8B423CBF16
:10339000A2B21946844405250427B6FBFCF39BB270
:1033A000F3B103FB05F4B6FBF4F4241A8C4203D802
:1033B00074B121462F461A4601339BB203FB05F434
:1033C000B6FBF4F4041B8C4202D90C46134600E011
:1033D0002F460135212D844403D021461A46DCE7CF
:1033E00013467A1E02F01F02C3F30C0343EA026382
:1033F000072F1C4A1C4998BF43F400331360D8F8C8
:10340000003043F08063C8F8003000230B70174988
:103410000B7017490B7017490B7017490B70174940
:1034200040F21350086040F24450486093601361CA
:103430005360936843F430139360114B40221A7029
:10344000A3F24E334FF480021A60BDE8F08100BF52
:103450002C8004400480044000D8B805001BB7004D
:10346000006CDC0200400C40D217FF1F6917FF1FE1
:10347000D817FF1FD317FF1F6817FF1F20C0044076
:1034800056E400E01B4A936800F0030123F01303A5
:103490000B4310F0040F114618BF43F010038B606C
:1034A00000F00F03042B134A03D1936843F08043C9
:1034B000936010F0080F0F4B03D01A6842F00052CF
:1034C0001A605B68C20623F080530A4A48BF43F083
:1034D000805353609368810623F0805348BF43F0C4
:1034E00080539360C305034903D50B6843F400532D
:1034F0000B60704700400C4008B5114B1B68DB06A1
:1035000000D408BD0F4B1A7802F0FF0312B100F08F
:103510009FFFF7E70C4A4FF4800111600B4A0C49FA
:10352000936040F203120A604A600A4A13700A4A22
:1035300013700A4B1B680BB101221A7008BD00BF43
:103540002C8004406817FF1F88E100E000400C4019
:1035500020C00440D217FF1F6917FF1F6417FF1F09
:1035600038B50446094B1B7803F0FF05002BF9D151
:1035700020460121FFF7D4FB20462946FFF7B0FB88
:10358000034B53F83420034B1A6038BD6817FF1FF4
:10359000C44F0000D417FF1F10B509B140F08000E0
:1035A0000E4A1378984217D00D4C2468E40412D5C3
:1035B00003F07F03302B02D10A4B00241C6000294A
:1035C00000F07F030CBF44216021302B03D1054B59
:1035D00041F440711960107010BD00BF700BFF1FE7
:1035E0003480044024C004407047FFFF0D4A38B5C2
:1035F000146814F010024FF0000410D03F280A4D58
:103600000AD80A4A012152F830302B60FFF788FBB4
:103610002B681C70012038BD2C60204638BD104638
:1036200038BD00BF2C8004406417FF1FC44F00004A
:103630000B4B1B6813F0100310D03828094B09D12D
:10364000094A40F2023111605A7B42F001025A737A
:10365000012070475A7B02F0FE025A730020704727
:103660002C80044000B00E4028D00440F8B51C4B1C
:103670001B68DA06064632D51A4B1B680BB10122CD
:103680001A70194B1C780134282C1F4628BF0024BF
:10369000164D2B78A34218D1FEF7ACFC40280FDC66
:1036A000134A53681B02F3D52B7812490133282B98
:1036B00028BF0023C95CDBB2C9B2D1602B70E7E739
:1036C000FF28E5DD00F0C4FEE2E70A4B0A4AF6B245
:1036D0001E5501231370094AE4B23C701360F8BD13
:1036E0002C800440D417FF1FD817FF1FD317FF1FCC
:1036F00000400C406A17FF1F6817FF1F5C018843DA
:1037000038B504464518AC4204D014F8010BFFF755
:10371000ADFFF8E738BDFFFF08B5034B1B7813B1C9
:1037200000F096FEF9E708BD6817FF1F064A074B31
:103730001B781078DBB2C0B283422CBF273000F177
:10374000FF30C01A704700BFD317FF1FD817FF1FE5
:10375000054B1878054B1B78C0B2DBB2984238BFD6
:103760004030C01A704700BFD217FF1F6917FF1FF4
:1037700010B5104B10491A780B78D2B2DBB29A42CE
:1037800014D00133402B28BF00230C48DCB2C05CAE
:103790000C700B490968C0B251B19A4238BF40322F
:1037A000D31A1A2B04DC00230B7010BD4FF0FF302E
:1037B00010BD00BFD217FF1F6917FF1F9217FF1F11
:1037C0006417FF1F084B1A78084B1B78DBB29A422C
:1037D00007D00133402B28BF0023054AD05CC0B27C
:1037E00070474FF0FF307047D217FF1F6917FF1F58
:1037F0009217FF1F054B1A78054BD2B21A70054B72
:103800001B680BB100221A70704700BF6917FF1FB9
:10381000D217FF1F6417FF1F10B52A4B5A68920278
:1038200020D5294AD868137828490133402B0978D4
:1038300028BF00238B4204D02549C0B2C854D9B256
:103840001170244A116869B1234A1278D2B29342A6
:1038500036BFC2F14002C2EB03039B18272BC4BF43
:1038600001230B70174A91680C021AD5536818028D
:1038700017D51A4B18481C780378DBB29C4206D146
:10388000174B00221A60012243F8042C09E001338F
:10389000282B28BF0023134CE45CDBB2E4B2D460D5
:1038A00003704A020CD5074B5B685B0208D50E4AD1
:1038B000002313700D4A126802B113700C4A136092
:1038C00010BD00BF00400C40D217FF1F6917FF1F3B
:1038D0009217FF1F6417FF1FD317FF1FD817FF1F73
:1038E0005C0188436A17FF1F6817FF1FD417FF1F6B
:1038F0005801884308B50368C9B21B68984708BDDA
:1039000008B50368C9B21B68984708BD08B50368C5
:10391000C9B21B68984708BD08B50368C9B21B68DF
:10392000984708BD08B50368C9B21B68984708BD29
:1039300008B50368C9B21B68984708BD08B5036895
:10394000C9B21B68984708BD08B50368C9B21B68AF
:10395000984708BD4B0803F1B76000F55840B0FB2D
:10396000F1F0FDF72DBD10B54B0803F1B76000F580
:1039700058401446B0FBF1F0FDF722FD2046BDE8AB
:103980001040FDF791BDFDF7C5BD0846FDF7F6BD3A
:103990000846FDF751BE08461146FDF70BBE08B5B7
:1039A0000846FDF77DFE003018BF012008BD08B5B0
:1039B0000846FDF797FE003018BF012008BDFDF74F
:1039C0007BBFFDF7B3BFFDF787BFFDF759BFFDF71D
:1039D000C5BFFDF75FBF08B50846FDF7A9FE01208A
:1039E00008BD08B50846FDF7A3FE012008BD10B5C7
:1039F000084614461146FDF7E5FE204610BD38B5D1
:103A000008460D4601F016F9044621462846FDF702
:103A1000D9FE204638BD0846FFF790BC10B50846D1
:103A20001446FFF78BFC2046BDE81040FFF72ABD87
:103A3000FFF762BD0846FFF793BD0846FFF7D4BD08
:103A400008461146FFF7A8BD08B50846FFF7CEFDAA
:103A5000003018BF012008BD08B50846FFF7E8FD93
:103A6000003018BF012008BDFFF772BEFFF7AABEE5
:103A7000FFF77EBEFFF750BEFFF7BCBEFFF756BE96
:103A800008B50846FFF7F2FD012008BD08B5084655
:103A9000FFF7ECFD012008BD10B50846144611469D
:103AA000FFF72EFE204610BD38B508460D4601F042
:103AB000C1F8044621462846FFF722FE204638BDBD
:103AC0007047FFFF044B00221A714FF47A711A738A
:103AD000024A99601A607047DC17FF1F40520000CD
:103AE00070B506460D4600243319284619790A2276
:103AF0000023013400F0C2F8042C05D02B682846BE
:103B00001B682E219847EFE7204670BD024B034A01
:103B10001A6000225A607047EC17FF1FA052000085
:103B200010B5044600F0EAF9204610BD04480549E6
:103B3000054A002303708023437300F03FBD00BF9C
:103B4000F417FF1F213B0000F009FF1F08B50368B1
:103B5000C9B21B68984708BD08B50368C9B21B689D
:103B6000984708BD08B50368C9B21B68984708BDE7
:103B700008B50368C9B21B68984708BD4B0803F134
:103B8000B76000F55840B0FBF1F0FEF71BBD10B573
:103B90004B0803F1B76000F558401446B0FBF1F054
:103BA000FEF710FD2046BDE81040FEF77FBDFEF792
:103BB000B3BD0846FEF704BE0846FEF753BE0846EE
:103BC0001146FEF719BE08B50846FEF773FE003031
:103BD00018BF012008BD08B50846FEF78DFE00306D
:103BE00018BF012008BDFEF771BFFEF7A9BFFEF7A1
:103BF0007DBFFEF74FBFFEF7BBBFFEF755BF08B551
:103C00000846FEF79FFE012008BD08B50846FEF7EE
:103C100099FE012008BD10B5084614461146FEF76E
:103C2000DBFE204610BD38B508460D4601F002F80F
:103C3000044621462846FEF7CFFE204638BD704791
:103C4000044B00221A714FF47A711A73024A996078
:103C50001A6070470818FF1FB05200007047FFFF3E
:103C6000044B00221A714FF47A711A73024A996058
:103C70001A6070471818FF1F1053000070B50546F2
:103C80008AB022B90368C9B21B6898472CE0012AA0
:103C900008BF0A2221B930228DF82520212413E003
:103CA0002124B1FBF2F002FB1011C9B209290AAEBE
:103CB00094BF303137312644C9B206F8241C01467E
:103CC00010B1013CE4B2ECE733B1013CE4B20AAB21
:103CD00023442D2203F8242C2B6801A95B68284675
:103CE0002144C4F1220298470AB070BDFFF704BA1C
:103CF000FFF7B8B9FFF7E0B9FFF7A2BA0846FFF738
:103D000093BA08461146FFF71DBA7047044B0022CC
:103D10001A714FF47A711A73024A99601A607047E7
:103D20002818FF1F7053000008B50368C9B21B684C
:103D3000984708BD08B50368C9B21B68984708BD15
:103D400008B50368C9B21B68984708BD08B5036881
:103D5000C9B21B68984708BD4B0803F1B76000F56E
:103D60005840B0FBF1F0FEF763B910B54B0803F112
:103D7000B76000F558401446B0FBF1F0FEF758F973
:103D80002046BDE81040FEF7B3B9FEF7E7B9084694
:103D9000FEF73CBA0846FEF78BBA08461146FEF716
:103DA00051BA08B50846FEF7ABFA003018BF01203B
:103DB00008BD08B50846FEF7C5FA003018BF012057
:103DC00008BDFEF733BBFEF76BBBFEF73FBBFEF74C
:103DD00011BBFEF77DBBFEF717BB08B50846FEF723
:103DE000B3FA012008BD08B50846FEF7ADFA012078
:103DF00008BD10B5084614461146FEF7EFFA2046F6
:103E000010BD38B508460D4600F014FF04462146A3
:103E10002846FEF7E3FA204638BD7047044B0022DF
:103E20001A714FF47A711A73024A99601A607047D6
:103E30003818FF1F9053000008B5034B01221A6089
:103E4000024B1B68984708BD0C7103405018FF1FB8
:103E500008B5034B01221A60024B5B68984708BD06
:103E60001C7103405018FF1F08B5034B01221A6054
:103E7000024B9B68984708BD2C7103405018FF1FE8
:103E800008B5034B01221A60024BDB68984708BD56
:103E90003C7103405018FF1F064B01221A6003F5C6
:103EA00088333C331A6822F400021A60024B002265
:103EB0001A707047007003404C18FF1F826800237F
:103EC00010B51360027B0121541102F01F0201FAA8
:103ED00002F2084941F82420074A41785354D15C42
:103EE00031B90133042BFAD1BDE81040FFF7D4BF3C
:103EF00010BD00BF80E100E04818FF1F037810B537
:103F000004460BB1FFF7DAFF0023237010BD08B59C
:103F10000368C9B21B68984708BD08B50368C9B2F1
:103F20001B68984708BD08B50368C9B21B68984765
:103F300008BD08B50368C9B21B68984708BD4B089F
:103F400003F1B76000F55840B0FBF1F0FDF7AEBDEE
:103F500010B54B0803F1B76000F558401446B0FBAC
:103F6000F1F0FDF7A3FD2046BDE81040FDF7DEBDF2
:103F7000FDF712BE0846FDF743BE0846FDF784BEB6
:103F800008461146FDF758BE08B50846FDF77EFE07
:103F9000003018BF012008BD08B50846FDF798FE9F
:103FA000003018BF012008BDFDF722BFFDF75ABF42
:103FB000FDF72EBFFDF700BFFDF76CBFFDF706BF95
:103FC00008B50846FDF7A2FE012008BD08B5084661
:103FD000FDF79CFE012008BD10B5084614461146A9
:103FE000FDF7DEFE204610BD38B508460D4600F050
:103FF00021FE044621462846FDF7D2FE204638BD64
:104000007047FFFF044B00221A714FF47A711A7344
:10401000024A99601A6070476018FF1FF053000051
:1040200070B500EB8303984209D28C0707D550F88E
:10403000044B21F8024B240C22F8024BF3E7A3F1C6
:104040000805A84204460ED205684468AEB246EAA6
:104050000446240C240444EA154441F8046B083057
:1040600042F8044BEBE79C4207D254F8040B21F8CA
:10407000020B000C22F8020BF5E770BD3F4B2DE957
:10408000F74F01221A703E4A3E493F4B14680E8892
:104090001D68870889469B4634B900F039F9044603
:1040A000002868D0364B186035B900F031F9054664
:1040B000002860D0CBF80000DFF8D4A0002F58D043
:1040C000C6F1800847450AD27200A1182A4450461A
:1040D000043104323B46FFF7A3FF3E4449E0DFF8DA
:1040E000B4C0B8F1000F3CD07200A1182A44504669
:1040F000434604310432CDF804C0FFF791FFDDF8E8
:1041000004C0DCF800300AEB880AC8EB07070BB1E3
:1041100046442EE01D4B1B68002BF9D11B4BCCF8FD
:1041200000401D6000F0F4F8044630B9144BCBF8A1
:1041300000001860A9F800001DE000F0E9F805464D
:1041400048B9204600F02AF90D4BCBF800501D600D
:10415000A9F800500FE00A4BCBF800001C600026C5
:10416000ACE7DCF8003033B9084B1B68002BD5D026
:1041700001E0A9F8006003B0BDE8F08F8818FF1FC8
:104180008418FF1F9818FF1F7018FF1F7818FF1F53
:104190000404FF1F8C18FF1F2E4B2DE9F04F1A68E7
:1041A0000132082A85B002D81A602C2502E00022CC
:1041B0001A602D250024DFF8B0902748D9F80010A8
:1041C0002A1B29B900EB4400920000F0D3FC3CE02C
:1041D000224EDFF898803788D8F800A0C7F1800316
:1041E00000EB84009A4228BF1A460390780002929E
:1041F0000A1804325044019204300023029A934278
:104200000BD0019A30F913B032F813C0039A4CEA7C
:104210000B4C42F823C00133F0E71C443B447F2B96
:1042200010D9084600F0BAF8504600F0B7F80C4A2A
:104230001368C9F80030002313600A4A1168C8F8EF
:1042400000101360AC423380B5D3A80005B0BDE8C0
:10425000F08F00BF800BFF1FB804FF1F7418FF1FF3
:104260009418FF1F8018FF1F7C18FF1F9018FF1F56
:1042700010B54378C4780078A12827D1012C04D147
:10428000134B5B680B7014601EE0022C1ED1812B57
:1042900005D10F4B986808709B681B1203E0822BB6
:1042A00003D100230B704B700CE0832B03D1FF2351
:1042B0000B700F23F7E7842B4FF0000007D1012389
:1042C0000B70487002231360012010BD002010BD48
:1042D000740BFF1F4378C2780078212814D1012A7B
:1042E00005D1012B10D1094A0978516009E0022A51
:1042F0000AD1012B08D108784978044A00EB012142
:10430000916013601846704700207047740BFF1FC0
:1043100010B572B61D4A1068134660B9506858B996
:10432000906858B9D06858B9106958B950691432B2
:1043300048B962B610BD06E0043204E0083202E07B
:104340000C3200E01032B0FA80F44FF00041E1404E
:1043500020EA010010600E4801780131C9B20170F5
:1043600062B6D31A9B10C4EB43144FF482736343B9
:10437000084A03F5FB5312681C330124D454D018A7
:10438000054B1A788A4238BF197010BDAC18FF1F50
:10439000A818FF1FA418FF1FA018FF1F417872B6AE
:1043A0000378012B02D9013B037011E04A11094B3C
:1043B000C9434FF0004001F01F0120FA01F153F80A
:1043C0002200084343F82200034B1A78013A1A707E
:1043D00062B67047AC18FF1FA818FF1FF8B5164B40
:1043E000164D1A6842F080721A60154B1A6842F036
:1043F00001021A60134B2E681C688CB1237A6BB1D2
:1044000023682F681B68204698472A68E188D21BDA
:10441000120993B28A42A38088BFE3806469ECE703
:104420002968094B891B09098AB21A80074B188829
:10443000814288BF1A80F8BDFCED00E0041000E066
:10444000001000E09C18FF1FC418FF1FAA18FF1FD0
:1044500010B5154C237833BB01232370FEF74CFEB7
:1044600008B1FFF752FCFDF727FA08B1FFF7F6FB9A
:10447000FEF72CFB08B1FFF7E2FBFCF7ADF908B142
:1044800000F08DF8FDF7D2FF08B1FFF7C6FCFDF78D
:10449000AFFC08B1FFF7B4FDFFF75AF908B1FFF719
:1044A0000FFB0023237010BDC618FF1F08B503685B
:1044B000C9B21B68984708BD08B50368C9B21B6834
:1044C000984708BD08B50368C9B21B68984708BD7E
:1044D00008B50368C9B21B68984708BD4B0803F1CB
:1044E000B76000F55840B0FBF1F0FBF7D3BF10B553
:1044F0004B0803F1B76000F558401446B0FBF1F0EB
:10450000FBF7C8FF2046BDE81040FCF703B8FCF7F6
:1045100037B80846FCF768B80846FCF7A9B808465B
:104520001146FCF77DB808B50846FCF7A3F8003043
:1045300018BF012008BD08B50846FCF7BDF80030DB
:1045400018BF012008BDFCF747B9FCF77FB9FCF79D
:1045500053B9FCF725B9FCF791B9FCF72BB908B5AD
:104560000846FCF7C7F8012008BD08B50846FCF767
:10457000C1F8012008BD10B5084614461146FCF7E5
:1045800003F9204610BD38B508460D4600F052FB31
:10459000044621462846FCF7F7F8204638BD704708
:1045A000044B00221A714FF47A711A73024A99600F
:1045B0001A607047C818FF1F505400000346084691
:1045C000194600F001B800BF10B40C46134601466E
:1045D000224602205DF8044B00F05CBB70B50F4E24
:1045E0000F4D761BB61007D0043D0024013455F85A
:1045F000043F9847A642F9D10A4E0B4D761B00F0B6
:1046000057FFB61008D0043D0024013455F8043F8C
:104610009847A642F9D170BD70BD00BFBC540000E0
:10462000BC540000E8540000BC540000024B01469A
:10463000186800F003B800BFB00FFF1F2DE9F04F5E
:1046400001F10B05162D83B0064627D935F0070575
:1046500027D4A94225D8304600F0D6FAB5F5FC7F1C
:1046600026D2C14F4FEAD50C07EBCC03DC689C4245
:1046700000F0D2816368E268A16823F00303234459
:1046800030465D68CA6045F0010591605D6000F0EC
:10469000BDFA0834204603B0BDE8F08F1025A942CA
:1046A000D9D900240C232046336003B0BDE8F08F35
:1046B0005FEA552C00F08A80BCF1040F00F26081A3
:1046C0004FEA951C0CF1380C4FEA4C01A64F07EB52
:1046D0008101CC68A14205D10CE0002B7ADAE468B4
:1046E000A14207D0626822F00302531B0F2BF4DDB6
:1046F0000CF1FF3C0CF1010C9B4B3C6903F1080EE3
:10470000744500F07E81616821F003014A1B0F2A85
:1047100000F36481002AC3F814E0C3F810E06ADAF9
:10472000B1F5007F80F03A81C90803EBC1004FEA80
:10473000A1085A688168A1604FF0010909FA08F8D8
:1047400048EA0202E0605A608460CC604FEAAC0341
:104750000120984090425BD8024206D12CF0030C15
:10476000400002420CF1040CFAD007EBCC0844469E
:10477000E146E3689C4207D145E1002A80F2568178
:10478000DB689C4200F03F81596821F003014A1B1D
:104790000F2AF2DD1C46D3F80CC054F8088F5919C3
:1047A00045F0010942F00105C3F804903046C8F80D
:1047B0000CC0CCF8088079613961C1F80CE0C1F80F
:1047C00008E04D608A5000F021FA63E77E214FF047
:1047D0003F0C7BE72244E3685068A16840F0010584
:1047E000CB6030469960556000F010FA08342046DE
:1047F00003B0BDE8F08F214430464B6843F001031D
:104800004B6000F003FA0834204603B0BDE8F08F97
:10481000BC68636823F00309A94504D3C5EB090309
:104820000F2B00F39180514B514A196813680133E3
:1048300005EB010A04EB090B00F061810AF5805ACF
:104840000AF10F0A2AF47F6A2AF00F0A304651460D
:10485000019200F0DDF9B0F1FF3F8046019A00F0CF
:104860000081834500F2FA80DFF810C1DCF80030E7
:10487000C3455344CCF8003000F04A8112683C49EB
:1048800001321BBFCBEB080B5B44C1F80080CCF8B6
:10489000003018F0070300F01381C3F10802C3F5DC
:1048A000805390440833C244CAF30B0ACAEB030A8C
:1048B00051463046CDF804C000F0AAF9431CDDF89B
:1048C00004C000F03581C8EB0002524442F00102FE
:1048D000DCF80030C7F808805344BC42C8F8042014
:1048E000CCF80030DFF894A015D0B9F10F0F40F2EA
:1048F000EA806168A9F10C0222F0070201F0010EC2
:10490000A118052042EA0E0E0F2AC4F804E0486000
:10491000886000F21181174ABC6811688B4288BF19
:104920001360154A11688B4288BF1360626822F0D9
:1049300003029542C5EB020301D80F2B04DC30467D
:1049400000F064F90024A5E6621943F0010345F084
:10495000010565603046BA60536000F057F90834CD
:10496000204603B0BDE8F08FB40FFF1FE018FF1F13
:10497000C013FF1FDC18FF1FD818FF1FE418FF1F0C
:10498000BCF1140F61D9BCF1540F00F28F804FEAD3
:10499000153C0CF16E0C4FEA4C0197E64B0A042BC8
:1049A00058D9142B00F2AE8003F15B02500007EBE4
:1049B0008000DFF8BC818368834200F08A805A68F7
:1049C00022F00302914202D29B689842F7D1D96843
:1049D0007A68E160A3608C60DC60B7E6611942F040
:1049E000010745F001056560304659611961C1F85C
:1049F0000CE0C1F808E04F608A50083400F006F976
:104A000048E65A68A2E609F1010919F0030F04F11A
:104A100008047FF4AEAE2DE004F108036469A342FC
:104A200008BF0CF1020C3FF467AE23E619441C46A4
:104A30004868DB6854F8082F40F001054D603046A7
:104A4000D3609A6000F0E2F824E60CF15B0C4FEAC8
:104A50004C013BE68A0938325000A8E7BC423FF4DB
:104A600003AFBC68626822F0030262E7D8F80080F6
:104A700098457BD11CF0030FA8F108030CF1FF3C13
:104A8000F4D17B6823EA00037B60400098423FF644
:104A9000BFAE00283FF4BCAE0342CC467FF465AE07
:104AA000400003420CF1040CFAD05EE6BCF5AA7F8C
:104AB0001AD84FEAD53C0CF1770C4FEA4C0105E6C9
:104AC0004FF48053EFE60123C8F804304446002237
:104AD0002FE791100120D8F8042000FA01F10A43D1
:104AE000C8F80420194674E740F254539C451BD87B
:104AF0004FEA954C0CF17C0C4FEA4C01E6E50AF1CB
:104B0000100AA3E6542B1FD80A0B6E3250004EE752
:104B1000CBF30B0100297FF4B1AE0AEB0901BA68AF
:104B200041F001015160F6E6FC214FF07E0CCDE52D
:104B300001224FF0000ACBE604F10801304600F0F4
:104B400073F9DAF80030E6E6B3F5AA7F03D8CA0BAA
:104B5000773250002BE740F25452934203D88A0C2C
:104B60007C32500023E7FC207E2220E77B688CE724
:104B7000B40FFF1FF0B4840743D0541E002A3ED068
:104B8000CDB2034603E0621E002C38D0144603F871
:104B9000015B9A07F7D1032C2AD9CDB245EA052546
:104BA0000F2C45EA054515D9A4F110073F0903F17B
:104BB000100606EB07161A46156055609560D5601D
:104BC0001032B242F8D104F00F040137032C03EB8A
:104BD00007130DD91E462246043A032A46F8045B01
:104BE000FAD8221F22F003020432134404F0030413
:104BF0002CB1C9B21C4403F8011BA342FBD1F0BC89
:104C0000704714460346C6E7704700BF704700BFB1
:104C100038B5074C0023054608462360FDF7E2F946
:104C2000431C00D038BD2368002BFBD02B6038BD5F
:104C30001819FF1F20F0030110F00300C0F100005D
:104C400051F8043B00F1040C4FEACC0C6FF0000269
:104C50001CBF22FA0CF213434FF0010C4CEA0C2C4F
:104C60004CEA0C4CA3EB0C0222EA030212EACC122F
:104C700004BF51F8043B0430F4D013F0FF0F1FBF02
:104C8000013013F47F4F013013F47F0F18BF013050
:104C9000704700BFF0B5274C2668D6F8484185B06C
:104CA0000746002C41D065681F2D1EDD224818B92B
:104CB0004FF0FF3005B0F0BD4FF4C8700391029281
:104CC0000193FFF7B3FC0399029A019B0446002865
:104CD000EED0D6F848512560002060600546C6F841
:104CE0004841C4F88801C4F88C013FB9AB1C0020CE
:104CF0000135656044F8231005B0F0BD04EB850074
:104D00004FF0010CC0F88820D4F888610CFA05F245
:104D10001643022FC4F88861C0F80831E6D1D4F8F0
:104D20008C311A43C4F88C21E0E706F5A674C6F866
:104D30004841B8E7AC5400002D460000024B13B1C7
:104D4000024800F005B87047000000005D4D00000B
:104D50000146002002460346FFF79CBF38B5094DC7
:104D6000094C641BA41018BF05EB840505D0013C59
:104D700055F8043D9847002CF9D1BDE8384000F0C3
:104D8000B3BB00BF0000000000000000F8B5234DD9
:104D90000F460446FFF738FFAB685E6826F003064F
:104DA000F11B01F6EF7121F47F6121F00F01A1F5F4
:104DB0008057B7F5805F07DB20460021FFF728FF0B
:104DC000AB683344984204D02046FFF71FFF002011
:104DD000F8BD20467942FFF71BFF01300DD0104B84
:104DE000AA681968F61B46F001062046C91B5660E2
:104DF0001960FFF70BFF0120F8BD20460021FFF7E7
:104E000007FFAB68C21A0F2ADEDD064D04492D6884
:104E100042F00102401B5A600860D5E7B40FFF1F43
:104E2000E418FF1FC013FF1F2DE9F0410D46064691
:104E3000002955D0FFF7E8FE55F8041CDFF874C1CF
:104E400021F00103A5F10804E218DCF80800576816
:104E5000904227F0030769D011F00101576032D06A
:104E60000021D0194068C00706D43B44906800294F
:104E70004ED0D268C260906043F001026260E3509D
:104E8000E1B9B3F5007F2DD35A0A042A6AD89809EC
:104E9000383041000CEB810C4649DCF808206245B3
:104EA00066D0516821F003018B4202D2926894458A
:104EB000F7D1D368E360A2609C60D4603046BDE85F
:104EC000F041FFF7A3BE55F8085C641B0CF108081D
:104ED000A06840452B4443D0E568C560A860C0E7A2
:104EE000BDE8F081DB080CEBC3020125DCF804000F
:104EF0009168A1609B1005FA03F31843E260CCF8B7
:104F0000040094603046CC60BDE8F041FFF77EBEFF
:104F1000294DA842ADD143F00102CCF81440CCF8A1
:104F20001040E060A0606260E350C7E71F44CB0719
:104F300007D455F8083CE41A1F44A268E368D3601C
:104F40009A601E4B1B6847F001029F426260CCF8DA
:104F50000840B3D31A4B30461968FFF717FFADE787
:104F600001217EE7142A0CD802F15B00410091E791
:104F70004B688010012505FA00F003434B6013468F
:104F800098E7542A03D8180B6E30410082E7B2F537
:104F9000AA7F03D8D80B773041007BE740F2545109
:104FA0008A4203D8980C7C30410073E7FC217E20B4
:104FB00070E700BFB40FFF1FBC0FFF1FBC13FF1F24
:104FC000E018FF1F4008FE4340A004404408FE4391
:104FD00044A004400018FE4300C004403000FE43DB
:104FE000309004403400FE43349004401C18FE43CB
:104FF0001CC004401018FE4310C004400818FE43B3
:1050000008C004400C18FE430CC004400C10FE43C2
:105010000CB004401010FE4310B004401810FE43C2
:1050200018B004401C10FE431CB004401410FE4392
:1050300014B004400418FE4304C004400010FE43B2
:1050400000B004400008FE4300A004400408FE43F2
:1050500004A004400C08FE430CA004400808FE43D2
:1050600008A004401418FE4314C004401818FE435E
:1050700018C004400410FE4304B004400810FE436E
:1050800008B004406820FE4368D004401400FE438A
:10509000149004403800FE43389004403C00FE4326
:1050A0003C9004404000FE43409004404808FE43CA
:1050B00048A004404C08FE434CA004402808FE438E
:1050C00028A004402C08FE432CA004406020FE438E
:1050D00060D004406420FE4364D004402010FE43AE
:1050E00020B004402410FE4324B004402810FE43A6
:1050F00028B004402C10FE432CB004404400FE4372
:10510000449004407000FE43709004407400FE43DD
:10511000749004406800FE43689004405008FE43C9
:1051200050A004405808FE4358A004405C08FE43C9
:105130005CA004405408FE4354A004402018FE43E1
:1051400020C004402418FE4324C004401008FE433D
:1051500010A004401408FE4314A004403818FE4375
:1051600038C004403418FE4334C004403018FE43B5
:1051700030C004403C18FE433CC004402C18FE43A1
:105180002CC004402820FE4328D004402C20FE439D
:105190002CD004400020FE4300D004400420FE43F5
:1051A00004D004400820FE4308D004400C20FE43F5
:1051B0000CD004401020FE4310D004401420FE43C5
:1051C00014D004401519141814FFFFFF000100004B
:1051D000020AFF1F12000000000200002C0AFF1F3D
:1051E000E900000000220000150BFF1F2100000055
:1051F000002100003E0AFF1F09000000000300001C
:10520000500BFF1F0000000001030904140AFF1FD8
:105210000000000002030904360BFF1F000000001D
:1052200003030904540BFF1F0000000000000000EE
:10523000000000000000000000000000000000006E
:10524000813A0000993A0000693A0000713A000082
:105250006D3A0000753A0000173A00001D3A000050
:10526000313A0000353A00003B3A0000413A000074
:10527000493A0000593A0000793A00007D3A0000AE
:1052800025390000313900003D390000493900005E
:10529000A93A00008D3A0000000000000000000064
:1052A000E13A0000000000000000000000000000E3
:1052B000FF3B0000173C0000E73B0000EF3B000015
:1052C000EB3B0000F33B00007D3B00008F3B000008
:1052D000AF3B0000B33B0000B93B0000BF3B000008
:1052E000C73B0000D73B0000F73B0000FB3B000042
:1052F0004D3B0000593B0000653B0000713B000046
:10530000273C00000B3C00000000000000000000F3
:10531000D7390000EF390000BF390000C73900005D
:10532000C3390000CB39000055390000673900004F
:10533000873900008B39000091390000973900004F
:105340009F390000AF390000CF390000D339000089
:10535000F5380000013900000D390000193900004E
:10536000FF390000E33900000000000000000000E9
:10537000FD3C0000033D0000ED3C0000F13C00005E
:10538000F53C0000F93C00000000000000000000B7
:10539000DB3D0000F33D0000C33D0000CB3D0000BD
:1053A000C73D0000CF3D0000593D00006B3D0000AF
:1053B0008B3D00008F3D0000953D00009B3D0000AF
:1053C000A33D0000B33D0000D33D0000D73D0000E9
:1053D000293D0000353D0000413D00004D3D0000ED
:1053E000033E0000E73D0000000000000000000058
:1053F000C13F0000D93F0000A93F0000B13F0000BD
:10540000AD3F0000B53F00003F3F0000513F0000AE
:10541000713F0000753F00007B3F0000813F0000AE
:10542000893F0000993F0000B93F0000BD3F0000E8
:105430000F3F00001B3F0000273F0000333F0000EC
:10544000E93F0000CD3F0000000000000000000028
:105450005F45000077450000474500004F450000CC
:105460004B45000053450000DD440000EF440000C0
:105470000F45000013450000194500001F450000BE
:105480002745000037450000574500005B450000F8
:10549000AD440000B9440000C5440000D144000000
:1054A000874500006B45000043000000880BFF1F8C
:1054B000F8B500BFF8BC08BC9E4670473D4D0000E3
:1054C00035040000C53A00000D3B00002D3B0000F4
:1054D000413C0000613C00000D3D00001D3E00000D
:0854E00005400000A145000099
:0454E800F8B500BF54
:1054EC0000000000080122001C19FF1F1F20090AE0
:1054FC000A041201010100000040C016D20400028F
:10550C000102030118035400650065006E0073006E
:10551C0079006400750069006E006F000902E900F3
:10552C00040100C03209040000020300000009213C
:10553C00110100012221000705810340000107052C
:10554C000203200002080B01030101000009040101
:10555C000000010100000A240100013E00020203C8
:10556C000C240201020600020300000009240302BD
:10557C0001010001000C24020301010002030000E0
:10558C00000A24063103010102020009240304026B
:10559C0006003100090402000001020000090402A7
:1055AC00010101020000072401020301000B240287
:1055BC00010202100144AC0009058305B40001008E
:1055CC00000725010000000009040300000102008F
:1055DC000009040301020102000007240103030176
:1055EC00000B2402010202100144AC000905040561
:1055FC00B400010085072501000000000905851194
:10560C00030001050006C9FF0904A15C750815001B
:10561C0026FF009540097581029520097691029527
:10562C00040976B102C01A035400650065006E00CF
:10563C0073007900200041007500640069006F0060
:10564C00040309040C03000000000000000000002B
:10565C00000000000000000000000000FFFFFFFF42
:10566C00220000000000000000000000FF0F0000FE
:10567C00050000000000000000000000740EFF1F79
:10568C00DC0EFF1F440FFF1F000000000000000095
:10569C0000000000000000000000000000000000FE
:1056AC00000000000000000000000000A8540000F2
:1056BC0000000000000000000000000000000000DE
:1056CC0000000000000000000000000000000000CE
:1056DC0000000000000000000000000000000000BE
:1056EC0000000000000000000000000000000000AE
:1056FC00000000000000000000000000000000009E
:10570C00000000000000000000000000000000008D
:10571C00000000000000000000000000000000007D
:10572C0001000000000000000E33CDAB34126DE61A
:10573C00ECDE05000B000000000000000000000083
:10574C00000000000000000000000000000000004D
:10575C00000000000000000000000000000000003D
:10576C00000000000000000000000000000000002D
:10577C00000000000000000000000000000000001D
:105AAC00880BFF1F0000000000000000B40FFF1F58
:105ABC00B40FFF1FBC0FFF1FBC0FFF1FC40FFF1F36
:105ACC00C40FFF1FCC0FFF1FCC0FFF1FD40FFF1FE6
:105ADC00D40FFF1FDC0FFF1FDC0FFF1FE40FFF1F96
:105AEC00E40FFF1FEC0FFF1FEC0FFF1FF40FFF1F46
:105AFC00F40FFF1FFC0FFF1FFC0FFF1F0410FF1FF5
:105B0C000410FF1F0C10FF1F0C10FF1F1410FF1FA1
:105B1C001410FF1F1C10FF1F1C10FF1F2410FF1F51
:105B2C002410FF1F2C10FF1F2C10FF1F3410FF1F01
:105B3C003410FF1F3C10FF1F3C10FF1F4410FF1FB1
:105B4C004410FF1F4C10FF1F4C10FF1F5410FF1F61
:105B5C005410FF1F5C10FF1F5C10FF1F6410FF1F11
:105B6C006410FF1F6C10FF1F6C10FF1F7410FF1FC1
:105B7C007410FF1F7C10FF1F7C10FF1F8410FF1F71
:105B8C008410FF1F8C10FF1F8C10FF1F9410FF1F21
:105B9C009410FF1F9C10FF1F9C10FF1FA410FF1FD1
:105BAC00A410FF1FAC10FF1FAC10FF1FB410FF1F81
:105BBC00B410FF1FBC10FF1FBC10FF1FC410FF1F31
:105BCC00C410FF1FCC10FF1FCC10FF1FD410FF1FE1
:105BDC00D410FF1FDC10FF1FDC10FF1FE410FF1F91
:105BEC00E410FF1FEC10FF1FEC10FF1FF410FF1F41
:105BFC00F410FF1FFC10FF1FFC10FF1F0411FF1FF0
:105C0C000411FF1F0C11FF1F0C11FF1F1411FF1F9C
:105C1C001411FF1F1C11FF1F1C11FF1F2411FF1F4C
:105C2C002411FF1F2C11FF1F2C11FF1F3411FF1FFC
:105C3C003411FF1F3C11FF1F3C11FF1F4411FF1FAC
:105C4C004411FF1F4C11FF1F4C11FF1F5411FF1F5C
:105C5C005411FF1F5C11FF1F5C11FF1F6411FF1F0C
:105C6C006411FF1F6C11FF1F6C11FF1F7411FF1FBC
:105C7C007411FF1F7C11FF1F7C11FF1F8411FF1F6C
:105C8C008411FF1F8C11FF1F8C11FF1F9411FF1F1C
:105C9C009411FF1F9C11FF1F9C11FF1FA411FF1FCC
:105CAC00A411FF1FAC11FF1FAC11FF1FB411FF1F7C
:105CBC00B411FF1FBC11FF1FBC11FF1FC411FF1F2C
:105CCC00C411FF1FCC11FF1FCC11FF1FD411FF1FDC
:105CDC00D411FF1FDC11FF1FDC11FF1FE411FF1F8C
:105CEC00E411FF1FEC11FF1FEC11FF1FF411FF1F3C
:105CFC00F411FF1FFC11FF1FFC11FF1F0412FF1FEB
:105D0C000412FF1F0C12FF1F0C12FF1F1412FF1F97
:105D1C001412FF1F1C12FF1F1C12FF1F2412FF1F47
:105D2C002412FF1F2C12FF1F2C12FF1F3412FF1FF7
:105D3C003412FF1F3C12FF1F3C12FF1F4412FF1FA7
:105D4C004412FF1F4C12FF1F4C12FF1F5412FF1F57
:105D5C005412FF1F5C12FF1F5C12FF1F6412FF1F07
:105D6C006412FF1F6C12FF1F6C12FF1F7412FF1FB7
:105D7C007412FF1F7C12FF1F7C12FF1F8412FF1F67
:105D8C008412FF1F8C12FF1F8C12FF1F9412FF1F17
:105D9C009412FF1F9C12FF1F9C12FF1FA412FF1FC7
:105DAC00A412FF1FAC12FF1FAC12FF1FB412FF1F77
:105DBC00B412FF1FBC12FF1FBC12FF1FC412FF1F27
:105DCC00C412FF1FCC12FF1FCC12FF1FD412FF1FD7
:105DDC00D412FF1FDC12FF1FDC12FF1FE412FF1F87
:105DEC00E412FF1FEC12FF1FEC12FF1FF412FF1F37
